{
  "_format": "hh-sol-artifact-1",
  "contractName": "MyEpicGame",
  "sourceName": "contracts/MyEpicGame.sol",
  "abi": [
    {
      "inputs": [
        {
          "internalType": "string[]",
          "name": "characterNames",
          "type": "string[]"
        },
        {
          "internalType": "string[]",
          "name": "characterImageURIs",
          "type": "string[]"
        },
        {
          "internalType": "uint256[]",
          "name": "characterHPs",
          "type": "uint256[]"
        },
        {
          "internalType": "uint256[]",
          "name": "characterAttackDamages",
          "type": "uint256[]"
        },
        {
          "internalType": "string",
          "name": "bossName",
          "type": "string"
        },
        {
          "internalType": "string",
          "name": "bossImageURI",
          "type": "string"
        },
        {
          "internalType": "uint256",
          "name": "bossHp",
          "type": "uint256"
        },
        {
          "internalType": "uint256",
          "name": "bossAttackDamage",
          "type": "uint256"
        }
      ],
      "stateMutability": "nonpayable",
      "type": "constructor"
    },
    {
      "anonymous": false,
      "inputs": [
        {
          "indexed": true,
          "internalType": "address",
          "name": "owner",
          "type": "address"
        },
        {
          "indexed": true,
          "internalType": "address",
          "name": "approved",
          "type": "address"
        },
        {
          "indexed": true,
          "internalType": "uint256",
          "name": "tokenId",
          "type": "uint256"
        }
      ],
      "name": "Approval",
      "type": "event"
    },
    {
      "anonymous": false,
      "inputs": [
        {
          "indexed": true,
          "internalType": "address",
          "name": "owner",
          "type": "address"
        },
        {
          "indexed": true,
          "internalType": "address",
          "name": "operator",
          "type": "address"
        },
        {
          "indexed": false,
          "internalType": "bool",
          "name": "approved",
          "type": "bool"
        }
      ],
      "name": "ApprovalForAll",
      "type": "event"
    },
    {
      "anonymous": false,
      "inputs": [
        {
          "indexed": false,
          "internalType": "uint256",
          "name": "newBossHP",
          "type": "uint256"
        },
        {
          "indexed": false,
          "internalType": "uint256",
          "name": "newPlayerHP",
          "type": "uint256"
        }
      ],
      "name": "AttackCompleted",
      "type": "event"
    },
    {
      "anonymous": false,
      "inputs": [
        {
          "indexed": false,
          "internalType": "address",
          "name": "sender",
          "type": "address"
        },
        {
          "indexed": false,
          "internalType": "uint256",
          "name": "tokenId",
          "type": "uint256"
        },
        {
          "indexed": false,
          "internalType": "uint256",
          "name": "characterIndex",
          "type": "uint256"
        }
      ],
      "name": "CharacterCreated",
      "type": "event"
    },
    {
      "anonymous": false,
      "inputs": [
        {
          "indexed": true,
          "internalType": "address",
          "name": "from",
          "type": "address"
        },
        {
          "indexed": true,
          "internalType": "address",
          "name": "to",
          "type": "address"
        },
        {
          "indexed": true,
          "internalType": "uint256",
          "name": "tokenId",
          "type": "uint256"
        }
      ],
      "name": "Transfer",
      "type": "event"
    },
    {
      "inputs": [
        {
          "internalType": "address",
          "name": "to",
          "type": "address"
        },
        {
          "internalType": "uint256",
          "name": "tokenId",
          "type": "uint256"
        }
      ],
      "name": "approve",
      "outputs": [],
      "stateMutability": "nonpayable",
      "type": "function"
    },
    {
      "inputs": [],
      "name": "attackBoss",
      "outputs": [],
      "stateMutability": "nonpayable",
      "type": "function"
    },
    {
      "inputs": [
        {
          "internalType": "address",
          "name": "owner",
          "type": "address"
        }
      ],
      "name": "balanceOf",
      "outputs": [
        {
          "internalType": "uint256",
          "name": "",
          "type": "uint256"
        }
      ],
      "stateMutability": "view",
      "type": "function"
    },
    {
      "inputs": [],
      "name": "bigBoss",
      "outputs": [
        {
          "internalType": "string",
          "name": "name",
          "type": "string"
        },
        {
          "internalType": "string",
          "name": "imageURI",
          "type": "string"
        },
        {
          "internalType": "uint256",
          "name": "attackDamage",
          "type": "uint256"
        },
        {
          "internalType": "uint256",
          "name": "hp",
          "type": "uint256"
        },
        {
          "internalType": "uint256",
          "name": "maxHp",
          "type": "uint256"
        }
      ],
      "stateMutability": "view",
      "type": "function"
    },
    {
      "inputs": [],
      "name": "getAllDefaultCharacters",
      "outputs": [
        {
          "components": [
            {
              "internalType": "string",
              "name": "name",
              "type": "string"
            },
            {
              "internalType": "string",
              "name": "imageURI",
              "type": "string"
            },
            {
              "internalType": "uint256",
              "name": "characterIndex",
              "type": "uint256"
            },
            {
              "internalType": "uint256",
              "name": "attackDamage",
              "type": "uint256"
            },
            {
              "internalType": "uint256",
              "name": "hp",
              "type": "uint256"
            },
            {
              "internalType": "uint256",
              "name": "maxHp",
              "type": "uint256"
            }
          ],
          "internalType": "struct MyEpicGame.CharacterAttributes[]",
          "name": "",
          "type": "tuple[]"
        }
      ],
      "stateMutability": "view",
      "type": "function"
    },
    {
      "inputs": [
        {
          "internalType": "uint256",
          "name": "tokenId",
          "type": "uint256"
        }
      ],
      "name": "getApproved",
      "outputs": [
        {
          "internalType": "address",
          "name": "",
          "type": "address"
        }
      ],
      "stateMutability": "view",
      "type": "function"
    },
    {
      "inputs": [],
      "name": "getBigBoss",
      "outputs": [
        {
          "components": [
            {
              "internalType": "string",
              "name": "name",
              "type": "string"
            },
            {
              "internalType": "string",
              "name": "imageURI",
              "type": "string"
            },
            {
              "internalType": "uint256",
              "name": "attackDamage",
              "type": "uint256"
            },
            {
              "internalType": "uint256",
              "name": "hp",
              "type": "uint256"
            },
            {
              "internalType": "uint256",
              "name": "maxHp",
              "type": "uint256"
            }
          ],
          "internalType": "struct MyEpicGame.BigBoss",
          "name": "",
          "type": "tuple"
        }
      ],
      "stateMutability": "view",
      "type": "function"
    },
    {
      "inputs": [
        {
          "internalType": "address",
          "name": "owner",
          "type": "address"
        },
        {
          "internalType": "address",
          "name": "operator",
          "type": "address"
        }
      ],
      "name": "isApprovedForAll",
      "outputs": [
        {
          "internalType": "bool",
          "name": "",
          "type": "bool"
        }
      ],
      "stateMutability": "view",
      "type": "function"
    },
    {
      "inputs": [
        {
          "internalType": "uint256",
          "name": "_characterIndex",
          "type": "uint256"
        }
      ],
      "name": "mint",
      "outputs": [],
      "stateMutability": "nonpayable",
      "type": "function"
    },
    {
      "inputs": [],
      "name": "name",
      "outputs": [
        {
          "internalType": "string",
          "name": "",
          "type": "string"
        }
      ],
      "stateMutability": "view",
      "type": "function"
    },
    {
      "inputs": [
        {
          "internalType": "uint256",
          "name": "",
          "type": "uint256"
        }
      ],
      "name": "nftHolderAttributes",
      "outputs": [
        {
          "internalType": "string",
          "name": "name",
          "type": "string"
        },
        {
          "internalType": "string",
          "name": "imageURI",
          "type": "string"
        },
        {
          "internalType": "uint256",
          "name": "characterIndex",
          "type": "uint256"
        },
        {
          "internalType": "uint256",
          "name": "attackDamage",
          "type": "uint256"
        },
        {
          "internalType": "uint256",
          "name": "hp",
          "type": "uint256"
        },
        {
          "internalType": "uint256",
          "name": "maxHp",
          "type": "uint256"
        }
      ],
      "stateMutability": "view",
      "type": "function"
    },
    {
      "inputs": [
        {
          "internalType": "address",
          "name": "",
          "type": "address"
        }
      ],
      "name": "nftHolders",
      "outputs": [
        {
          "internalType": "uint256",
          "name": "",
          "type": "uint256"
        }
      ],
      "stateMutability": "view",
      "type": "function"
    },
    {
      "inputs": [
        {
          "internalType": "uint256",
          "name": "tokenId",
          "type": "uint256"
        }
      ],
      "name": "ownerOf",
      "outputs": [
        {
          "internalType": "address",
          "name": "",
          "type": "address"
        }
      ],
      "stateMutability": "view",
      "type": "function"
    },
    {
      "inputs": [
        {
          "internalType": "address",
          "name": "from",
          "type": "address"
        },
        {
          "internalType": "address",
          "name": "to",
          "type": "address"
        },
        {
          "internalType": "uint256",
          "name": "tokenId",
          "type": "uint256"
        }
      ],
      "name": "safeTransferFrom",
      "outputs": [],
      "stateMutability": "nonpayable",
      "type": "function"
    },
    {
      "inputs": [
        {
          "internalType": "address",
          "name": "from",
          "type": "address"
        },
        {
          "internalType": "address",
          "name": "to",
          "type": "address"
        },
        {
          "internalType": "uint256",
          "name": "tokenId",
          "type": "uint256"
        },
        {
          "internalType": "bytes",
          "name": "_data",
          "type": "bytes"
        }
      ],
      "name": "safeTransferFrom",
      "outputs": [],
      "stateMutability": "nonpayable",
      "type": "function"
    },
    {
      "inputs": [
        {
          "internalType": "address",
          "name": "operator",
          "type": "address"
        },
        {
          "internalType": "bool",
          "name": "approved",
          "type": "bool"
        }
      ],
      "name": "setApprovalForAll",
      "outputs": [],
      "stateMutability": "nonpayable",
      "type": "function"
    },
    {
      "inputs": [
        {
          "internalType": "bytes4",
          "name": "interfaceId",
          "type": "bytes4"
        }
      ],
      "name": "supportsInterface",
      "outputs": [
        {
          "internalType": "bool",
          "name": "",
          "type": "bool"
        }
      ],
      "stateMutability": "view",
      "type": "function"
    },
    {
      "inputs": [],
      "name": "symbol",
      "outputs": [
        {
          "internalType": "string",
          "name": "",
          "type": "string"
        }
      ],
      "stateMutability": "view",
      "type": "function"
    },
    {
      "inputs": [
        {
          "internalType": "uint256",
          "name": "_tokenID",
          "type": "uint256"
        }
      ],
      "name": "tokenURI",
      "outputs": [
        {
          "internalType": "string",
          "name": "",
          "type": "string"
        }
      ],
      "stateMutability": "view",
      "type": "function"
    },
    {
      "inputs": [
        {
          "internalType": "address",
          "name": "from",
          "type": "address"
        },
        {
          "internalType": "address",
          "name": "to",
          "type": "address"
        },
        {
          "internalType": "uint256",
          "name": "tokenId",
          "type": "uint256"
        }
      ],
      "name": "transferFrom",
      "outputs": [],
      "stateMutability": "nonpayable",
      "type": "function"
    },
    {
      "inputs": [],
      "name": "userHasNFT",
      "outputs": [
        {
          "components": [
            {
              "internalType": "string",
              "name": "name",
              "type": "string"
            },
            {
              "internalType": "string",
              "name": "imageURI",
              "type": "string"
            },
            {
              "internalType": "uint256",
              "name": "characterIndex",
              "type": "uint256"
            },
            {
              "internalType": "uint256",
              "name": "attackDamage",
              "type": "uint256"
            },
            {
              "internalType": "uint256",
              "name": "hp",
              "type": "uint256"
            },
            {
              "internalType": "uint256",
              "name": "maxHp",
              "type": "uint256"
            }
          ],
          "internalType": "struct MyEpicGame.CharacterAttributes",
          "name": "",
          "type": "tuple"
        }
      ],
      "stateMutability": "view",
      "type": "function"
    }
  ],
  "bytecode": "0x60806040523480156200001157600080fd5b5060405162005ba638038062005ba6833981810160405281019062000037919062000a84565b6040518060400160405280600981526020017f466c756666796d6f6e00000000000000000000000000000000000000000000008152506040518060400160405280600781526020017f4d4f4e53544552000000000000000000000000000000000000000000000000008152508160009080519060200190620000bb929190620007ec565b508060019080519060200190620000d4929190620007ec565b5050506040518060a0016040528085815260200184815260200182815260200183815260200183815250600860008201518160000190805190602001906200011e929190620007ec565b5060208201518160010190805190602001906200013d929190620007ec565b50604082015181600201556060820151816003015560808201518160040155905050620002c06040518060600160405280602a815260200162005b7c602a9139600860000180546200018f9062000daa565b80601f0160208091040260200160405190810160405280929190818152602001828054620001bd9062000daa565b80156200020e5780601f10620001e2576101008083540402835291602001916200020e565b820191906000526020600020905b815481529060010190602001808311620001f057829003601f168201915b5050505050600860030154600860010180546200022b9062000daa565b80601f0160208091040260200160405190810160405280929190818152602001828054620002599062000daa565b8015620002aa5780601f106200027e57610100808354040283529160200191620002aa565b820191906000526020600020905b8154815290600101906020018083116200028c57829003601f168201915b50505050506200070160201b62001fae1760201c565b60005b8851811015620006db5760076040518060c001604052808b848151811062000314577f4e487b7100000000000000000000000000000000000000000000000000000000600052603260045260246000fd5b602002602001015181526020018a84815181106200035b577f4e487b7100000000000000000000000000000000000000000000000000000000600052603260045260246000fd5b60200260200101518152602001838152602001888481518110620003a8577f4e487b7100000000000000000000000000000000000000000000000000000000600052603260045260246000fd5b60200260200101518152602001898481518110620003ef577f4e487b7100000000000000000000000000000000000000000000000000000000600052603260045260246000fd5b6020026020010151815260200189848151811062000436577f4e487b7100000000000000000000000000000000000000000000000000000000600052603260045260246000fd5b60200260200101518152509080600181540180825580915050600190039060005260206000209060060201600090919091909150600082015181600001908051906020019062000488929190620007ec565b506020820151816001019080519060200190620004a7929190620007ec565b5060408201518160020155606082015181600301556080820151816004015560a0820151816005015550506000600782815481106200050f577f4e487b7100000000000000000000000000000000000000000000000000000000600052603260045260246000fd5b90600052602060002090600602016040518060c00160405290816000820180546200053a9062000daa565b80601f0160208091040260200160405190810160405280929190818152602001828054620005689062000daa565b8015620005b95780601f106200058d57610100808354040283529160200191620005b9565b820191906000526020600020905b8154815290600101906020018083116200059b57829003601f168201915b50505050508152602001600182018054620005d49062000daa565b80601f0160208091040260200160405190810160405280929190818152602001828054620006029062000daa565b8015620006535780601f10620006275761010080835404028352916020019162000653565b820191906000526020600020905b8154815290600101906020018083116200063557829003601f168201915b505050505081526020016002820154815260200160038201548152602001600482015481526020016005820154815250509050620006c460405180606001604052806028815260200162005b54602891398260000151836080015184602001516200070160201b62001fae1760201c565b508080620006d29062000e16565b915050620002c3565b50620006f36006620007ad60201b620020501760201c565b505050505050505062000f1c565b620007a7848484846040516024016200071e949392919062000c2f565b6040516020818303038152906040527f8d142cdd000000000000000000000000000000000000000000000000000000007bffffffffffffffffffffffffffffffffffffffffffffffffffffffff19166020820180517bffffffffffffffffffffffffffffffffffffffffffffffffffffffff8381831617835250505050620007c360201b60201c565b50505050565b6001816000016000828254019250508190555050565b60008151905060006a636f6e736f6c652e6c6f679050602083016000808483855afa5050505050565b828054620007fa9062000daa565b90600052602060002090601f0160209004810192826200081e57600085556200086a565b82601f106200083957805160ff19168380011785556200086a565b828001600101855582156200086a579182015b82811115620008695782518255916020019190600101906200084c565b5b5090506200087991906200087d565b5090565b5b80821115620008985760008160009055506001016200087e565b5090565b6000620008b3620008ad8462000cba565b62000c91565b90508083825260208201905082856020860282011115620008d357600080fd5b60005b858110156200092257815167ffffffffffffffff811115620008f757600080fd5b80860162000906898262000a40565b85526020850194506020840193505050600181019050620008d6565b5050509392505050565b6000620009436200093d8462000ce9565b62000c91565b905080838252602082019050828560208602820111156200096357600080fd5b60005b858110156200099757816200097c888262000a6d565b84526020840193506020830192505060018101905062000966565b5050509392505050565b6000620009b8620009b28462000d18565b62000c91565b905082815260208101848484011115620009d157600080fd5b620009de84828562000d74565b509392505050565b600082601f830112620009f857600080fd5b815162000a0a8482602086016200089c565b91505092915050565b600082601f83011262000a2557600080fd5b815162000a378482602086016200092c565b91505092915050565b600082601f83011262000a5257600080fd5b815162000a64848260208601620009a1565b91505092915050565b60008151905062000a7e8162000f02565b92915050565b600080600080600080600080610100898b03121562000aa257600080fd5b600089015167ffffffffffffffff81111562000abd57600080fd5b62000acb8b828c01620009e6565b985050602089015167ffffffffffffffff81111562000ae957600080fd5b62000af78b828c01620009e6565b975050604089015167ffffffffffffffff81111562000b1557600080fd5b62000b238b828c0162000a13565b965050606089015167ffffffffffffffff81111562000b4157600080fd5b62000b4f8b828c0162000a13565b955050608089015167ffffffffffffffff81111562000b6d57600080fd5b62000b7b8b828c0162000a40565b94505060a089015167ffffffffffffffff81111562000b9957600080fd5b62000ba78b828c0162000a40565b93505060c062000bba8b828c0162000a6d565b92505060e062000bcd8b828c0162000a6d565b9150509295985092959890939650565b600062000bea8262000d4e565b62000bf6818562000d59565b935062000c0881856020860162000d74565b62000c138162000ef1565b840191505092915050565b62000c298162000d6a565b82525050565b6000608082019050818103600083015262000c4b818762000bdd565b9050818103602083015262000c61818662000bdd565b905062000c72604083018562000c1e565b818103606083015262000c86818462000bdd565b905095945050505050565b600062000c9d62000cb0565b905062000cab828262000de0565b919050565b6000604051905090565b600067ffffffffffffffff82111562000cd85762000cd762000ec2565b5b602082029050602081019050919050565b600067ffffffffffffffff82111562000d075762000d0662000ec2565b5b602082029050602081019050919050565b600067ffffffffffffffff82111562000d365762000d3562000ec2565b5b62000d418262000ef1565b9050602081019050919050565b600081519050919050565b600082825260208201905092915050565b6000819050919050565b60005b8381101562000d9457808201518184015260208101905062000d77565b8381111562000da4576000848401525b50505050565b6000600282049050600182168062000dc357607f821691505b6020821081141562000dda5762000dd962000e93565b5b50919050565b62000deb8262000ef1565b810181811067ffffffffffffffff8211171562000e0d5762000e0c62000ec2565b5b80604052505050565b600062000e238262000d6a565b91507fffffffffffffffffffffffffffffffffffffffffffffffffffffffffffffffff82141562000e595762000e5862000e64565b5b600182019050919050565b7f4e487b7100000000000000000000000000000000000000000000000000000000600052601160045260246000fd5b7f4e487b7100000000000000000000000000000000000000000000000000000000600052602260045260246000fd5b7f4e487b7100000000000000000000000000000000000000000000000000000000600052604160045260246000fd5b6000601f19601f8301169050919050565b62000f0d8162000d6a565b811462000f1957600080fd5b50565b614c288062000f2c6000396000f3fe608060405234801561001057600080fd5b50600436106101375760003560e01c80637df124a1116100b8578063a9c326791161007c578063a9c3267914610365578063b88d4fde14610387578063b953084e146103a3578063c87b56dd146103c1578063d4f24c5b146103f1578063e985e9c5146103fb57610137565b80637df124a1146102aa57806395d89b41146102da57806398da4c95146102f8578063a0712d681461032d578063a22cb4651461034957610137565b806323b872dd116100ff57806323b872dd146101f457806342842e0e146102105780636352211e1461022c57806370a082311461025c5780637a9959c41461028c57610137565b806301ffc9a71461013c5780630665f9611461016c57806306fdde031461018a578063081812fc146101a8578063095ea7b3146101d8575b600080fd5b61015660048036038101906101519190613327565b61042b565b6040516101639190613b8c565b60405180910390f35b61017461050d565b6040516101819190613fd9565b60405180910390f35b610192610669565b60405161019f9190613ba7565b60405180910390f35b6101c260048036038101906101bd9190613379565b6106fb565b6040516101cf9190613acc565b60405180910390f35b6101f260048036038101906101ed91906132eb565b610780565b005b61020e600480360381019061020991906131e5565b610898565b005b61022a600480360381019061022591906131e5565b6108f8565b005b61024660048036038101906102419190613379565b610918565b6040516102539190613acc565b60405180910390f35b61027660048036038101906102719190613180565b6109ca565b604051610283919061401d565b60405180910390f35b610294610a82565b6040516102a19190613ffb565b60405180910390f35b6102c460048036038101906102bf9190613180565b610c5a565b6040516102d1919061401d565b60405180910390f35b6102e2610c72565b6040516102ef9190613ba7565b60405180910390f35b610312600480360381019061030d9190613379565b610d04565b60405161032496959493929190613d1c565b60405180910390f35b61034760048036038101906103429190613379565b610e50565b005b610363600480360381019061035e91906132af565b611422565b005b61036d6115a3565b60405161037e959493929190613cbb565b60405180910390f35b6103a1600480360381019061039c9190613234565b6116d7565b005b6103ab611739565b6040516103b89190613b6a565b60405180910390f35b6103db60048036038101906103d69190613379565b6118e4565b6040516103e89190613ba7565b60405180910390f35b6103f9611aff565b005b610415600480360381019061041091906131a9565b611f1a565b6040516104229190613b8c565b60405180910390f35b60007f80ac58cd000000000000000000000000000000000000000000000000000000007bffffffffffffffffffffffffffffffffffffffffffffffffffffffff1916827bffffffffffffffffffffffffffffffffffffffffffffffffffffffff191614806104f657507f5b5e139f000000000000000000000000000000000000000000000000000000007bffffffffffffffffffffffffffffffffffffffffffffffffffffffff1916827bffffffffffffffffffffffffffffffffffffffffffffffffffffffff1916145b80610506575061050582612066565b5b9050919050565b610515612fa7565b60086040518060a00160405290816000820180546105329061430f565b80601f016020809104026020016040519081016040528092919081815260200182805461055e9061430f565b80156105ab5780601f10610580576101008083540402835291602001916105ab565b820191906000526020600020905b81548152906001019060200180831161058e57829003601f168201915b505050505081526020016001820180546105c49061430f565b80601f01602080910402602001604051908101604052809291908181526020018280546105f09061430f565b801561063d5780601f106106125761010080835404028352916020019161063d565b820191906000526020600020905b81548152906001019060200180831161062057829003601f168201915b505050505081526020016002820154815260200160038201548152602001600482015481525050905090565b6060600080546106789061430f565b80601f01602080910402602001604051908101604052809291908181526020018280546106a49061430f565b80156106f15780601f106106c6576101008083540402835291602001916106f1565b820191906000526020600020905b8154815290600101906020018083116106d457829003601f168201915b5050505050905090565b6000610706826120d0565b610745576040517f08c379a000000000000000000000000000000000000000000000000000000000815260040161073c90613f59565b60405180910390fd5b6004600083815260200190815260200160002060009054906101000a900473ffffffffffffffffffffffffffffffffffffffff169050919050565b600061078b82610918565b90508073ffffffffffffffffffffffffffffffffffffffff168373ffffffffffffffffffffffffffffffffffffffff1614156107fc576040517f08c379a00000000000000000000000000000000000000000000000000000000081526004016107f390613f99565b60405180910390fd5b8073ffffffffffffffffffffffffffffffffffffffff1661081b61213c565b73ffffffffffffffffffffffffffffffffffffffff16148061084a57506108498161084461213c565b611f1a565b5b610889576040517f08c379a000000000000000000000000000000000000000000000000000000000815260040161088090613eb9565b60405180910390fd5b6108938383612144565b505050565b6108a96108a361213c565b826121fd565b6108e8576040517f08c379a00000000000000000000000000000000000000000000000000000000081526004016108df90613fb9565b60405180910390fd5b6108f38383836122db565b505050565b610913838383604051806020016040528060008152506116d7565b505050565b6000806002600084815260200190815260200160002060009054906101000a900473ffffffffffffffffffffffffffffffffffffffff169050600073ffffffffffffffffffffffffffffffffffffffff168173ffffffffffffffffffffffffffffffffffffffff1614156109c1576040517f08c379a00000000000000000000000000000000000000000000000000000000081526004016109b890613ef9565b60405180910390fd5b80915050919050565b60008073ffffffffffffffffffffffffffffffffffffffff168273ffffffffffffffffffffffffffffffffffffffff161415610a3b576040517f08c379a0000000000000000000000000000000000000000000000000000000008152600401610a3290613ed9565b60405180910390fd5b600360008373ffffffffffffffffffffffffffffffffffffffff1673ffffffffffffffffffffffffffffffffffffffff168152602001908152602001600020549050919050565b610a8a612fd6565b6000600e60003373ffffffffffffffffffffffffffffffffffffffff1673ffffffffffffffffffffffffffffffffffffffff1681526020019081526020016000205490506000811115610c4957600d60008281526020019081526020016000206040518060c0016040529081600082018054610b059061430f565b80601f0160208091040260200160405190810160405280929190818152602001828054610b319061430f565b8015610b7e5780601f10610b5357610100808354040283529160200191610b7e565b820191906000526020600020905b815481529060010190602001808311610b6157829003601f168201915b50505050508152602001600182018054610b979061430f565b80601f0160208091040260200160405190810160405280929190818152602001828054610bc39061430f565b8015610c105780601f10610be557610100808354040283529160200191610c10565b820191906000526020600020905b815481529060010190602001808311610bf357829003601f168201915b50505050508152602001600282015481526020016003820154815260200160048201548152602001600582015481525050915050610c57565b610c51612fd6565b80925050505b90565b600e6020528060005260406000206000915090505481565b606060018054610c819061430f565b80601f0160208091040260200160405190810160405280929190818152602001828054610cad9061430f565b8015610cfa5780601f10610ccf57610100808354040283529160200191610cfa565b820191906000526020600020905b815481529060010190602001808311610cdd57829003601f168201915b5050505050905090565b600d602052806000526040600020600091509050806000018054610d279061430f565b80601f0160208091040260200160405190810160405280929190818152602001828054610d539061430f565b8015610da05780601f10610d7557610100808354040283529160200191610da0565b820191906000526020600020905b815481529060010190602001808311610d8357829003601f168201915b505050505090806001018054610db59061430f565b80601f0160208091040260200160405190810160405280929190818152602001828054610de19061430f565b8015610e2e5780601f10610e0357610100808354040283529160200191610e2e565b820191906000526020600020905b815481529060010190602001808311610e1157829003601f168201915b5050505050908060020154908060030154908060040154908060050154905086565b6000610e5c6006612537565b9050610e683382612545565b6040518060c0016040528060078481548110610ead577f4e487b7100000000000000000000000000000000000000000000000000000000600052603260045260246000fd5b90600052602060002090600602016000018054610ec99061430f565b80601f0160208091040260200160405190810160405280929190818152602001828054610ef59061430f565b8015610f425780601f10610f1757610100808354040283529160200191610f42565b820191906000526020600020905b815481529060010190602001808311610f2557829003601f168201915b5050505050815260200160078481548110610f86577f4e487b7100000000000000000000000000000000000000000000000000000000600052603260045260246000fd5b90600052602060002090600602016001018054610fa29061430f565b80601f0160208091040260200160405190810160405280929190818152602001828054610fce9061430f565b801561101b5780601f10610ff05761010080835404028352916020019161101b565b820191906000526020600020905b815481529060010190602001808311610ffe57829003601f168201915b505050505081526020016007848154811061105f577f4e487b7100000000000000000000000000000000000000000000000000000000600052603260045260246000fd5b9060005260206000209060060201600201548152602001600784815481106110b0577f4e487b7100000000000000000000000000000000000000000000000000000000600052603260045260246000fd5b906000526020600020906006020160030154815260200160078481548110611101577f4e487b7100000000000000000000000000000000000000000000000000000000600052603260045260246000fd5b906000526020600020906006020160040154815260200160078481548110611152577f4e487b7100000000000000000000000000000000000000000000000000000000600052603260045260246000fd5b906000526020600020906006020160050154815250600d6000838152602001908152602001600020600082015181600001908051906020019061119692919061300c565b5060208201518160010190805190602001906111b392919061300c565b5060408201518160020155606082015181600301556080820151816004015560a082015181600501559050506112026040518060600160405280602d8152602001614b5e602d91398284612563565b6113956040518060400160405280601c81526020017f4d696e74656420257320776974682048502025732c20696d6720257300000000815250600d6000848152602001908152602001600020600001805461125c9061430f565b80601f01602080910402602001604051908101604052809291908181526020018280546112889061430f565b80156112d55780601f106112aa576101008083540402835291602001916112d5565b820191906000526020600020905b8154815290600101906020018083116112b857829003601f168201915b5050505050600d600085815260200190815260200160002060040154600d600086815260200190815260200160002060010180546113129061430f565b80601f016020809104026020016040519081016040528092919081815260200182805461133e9061430f565b801561138b5780601f106113605761010080835404028352916020019161138b565b820191906000526020600020905b81548152906001019060200180831161136e57829003601f168201915b5050505050611fae565b80600e60003373ffffffffffffffffffffffffffffffffffffffff1673ffffffffffffffffffffffffffffffffffffffff168152602001908152602001600020819055506113e36006612050565b7fc156574c01436c2230a4afae929cd07bbd5d666b365150fd04b940986d8539e033828460405161141693929190613b33565b60405180910390a15050565b61142a61213c565b73ffffffffffffffffffffffffffffffffffffffff168273ffffffffffffffffffffffffffffffffffffffff161415611498576040517f08c379a000000000000000000000000000000000000000000000000000000000815260040161148f90613e79565b60405180910390fd5b80600560006114a561213c565b73ffffffffffffffffffffffffffffffffffffffff1673ffffffffffffffffffffffffffffffffffffffff16815260200190815260200160002060008473ffffffffffffffffffffffffffffffffffffffff1673ffffffffffffffffffffffffffffffffffffffff16815260200190815260200160002060006101000a81548160ff0219169083151502179055508173ffffffffffffffffffffffffffffffffffffffff1661155261213c565b73ffffffffffffffffffffffffffffffffffffffff167f17307eab39ab6107e8899845ad3d59bd9653f200f220920489ca2b5937696c31836040516115979190613b8c565b60405180910390a35050565b60088060000180546115b49061430f565b80601f01602080910402602001604051908101604052809291908181526020018280546115e09061430f565b801561162d5780601f106116025761010080835404028352916020019161162d565b820191906000526020600020905b81548152906001019060200180831161161057829003601f168201915b5050505050908060010180546116429061430f565b80601f016020809104026020016040519081016040528092919081815260200182805461166e9061430f565b80156116bb5780601f10611690576101008083540402835291602001916116bb565b820191906000526020600020905b81548152906001019060200180831161169e57829003601f168201915b5050505050908060020154908060030154908060040154905085565b6116e86116e261213c565b836121fd565b611727576040517f08c379a000000000000000000000000000000000000000000000000000000000815260040161171e90613fb9565b60405180910390fd5b61173384848484612602565b50505050565b60606007805480602002602001604051908101604052809291908181526020016000905b828210156118db57838290600052602060002090600602016040518060c00160405290816000820180546117909061430f565b80601f01602080910402602001604051908101604052809291908181526020018280546117bc9061430f565b80156118095780601f106117de57610100808354040283529160200191611809565b820191906000526020600020905b8154815290600101906020018083116117ec57829003601f168201915b505050505081526020016001820180546118229061430f565b80601f016020809104026020016040519081016040528092919081815260200182805461184e9061430f565b801561189b5780601f106118705761010080835404028352916020019161189b565b820191906000526020600020905b81548152906001019060200180831161187e57829003601f168201915b505050505081526020016002820154815260200160038201548152602001600482015481526020016005820154815250508152602001906001019061175d565b50505050905090565b60606000600d60008481526020019081526020016000206040518060c00160405290816000820180546119169061430f565b80601f01602080910402602001604051908101604052809291908181526020018280546119429061430f565b801561198f5780601f106119645761010080835404028352916020019161198f565b820191906000526020600020905b81548152906001019060200180831161197257829003601f168201915b505050505081526020016001820180546119a89061430f565b80601f01602080910402602001604051908101604052809291908181526020018280546119d49061430f565b8015611a215780601f106119f657610100808354040283529160200191611a21565b820191906000526020600020905b815481529060010190602001808311611a0457829003601f168201915b5050505050815260200160028201548152602001600382015481526020016004820154815260200160058201548152505090506000611a63826080015161265e565b90506000611a748360a0015161265e565b90506000611a85846060015161265e565b90506000611acb8560000151611a9a8961265e565b8760200151878787604051602001611ab796959493929190613a05565b60405160208183030381529060405261280b565b9050600081604051602001611ae09190613aaa565b6040516020818303038152906040529050809650505050505050919050565b6000600e60003373ffffffffffffffffffffffffffffffffffffffff1673ffffffffffffffffffffffffffffffffffffffff1681526020019081526020016000205490506000600d60008381526020019081526020016000209050611c126040518060600160405280603e8152602001614b20603e9139826000018054611b859061430f565b80601f0160208091040260200160405190810160405280929190818152602001828054611bb19061430f565b8015611bfe5780601f10611bd357610100808354040283529160200191611bfe565b820191906000526020600020905b815481529060010190602001808311611be157829003601f168201915b5050505050836004015484600301546129c9565b611cea6040518060400160405280601b81526020017f426f73732025732068617320257320485020616e64202573204144000000000081525060086000018054611c5b9061430f565b80601f0160208091040260200160405190810160405280929190818152602001828054611c879061430f565b8015611cd45780601f10611ca957610100808354040283529160200191611cd4565b820191906000526020600020905b815481529060010190602001808311611cb757829003601f168201915b50505050506008600301546008600201546129c9565b6000816004015411611d31576040517f08c379a0000000000000000000000000000000000000000000000000000000008152600401611d2890613df9565b60405180910390fd5b600060086003015411611d79576040517f08c379a0000000000000000000000000000000000000000000000000000000008152600401611d7090613f39565b60405180910390fd5b806003015460086003015411611d99576000600860030181905550611dba565b806003015460086003016000828254611db29190614225565b925050819055505b600860020154816004015411611dd95760008160040181905550611dfa565b600860020154816004016000828254611df29190614225565b925050819055505b611eae604051806060016040528060218152602001614aff60219139826000018054611e259061430f565b80601f0160208091040260200160405190810160405280929190818152602001828054611e519061430f565b8015611e9e5780601f10611e7357610100808354040283529160200191611e9e565b820191906000526020600020905b815481529060010190602001808311611e8157829003601f168201915b5050505050600860030154612a6b565b611ed4604051806060016040528060288152602001614bcb602891398260040154612b0a565b7f24596b044f9390b6f54a6470706bb6795f0a3a4b6d148ca80241481a5f60938c6008600301548260040154604051611f0e929190614038565b60405180910390a15050565b6000600560008473ffffffffffffffffffffffffffffffffffffffff1673ffffffffffffffffffffffffffffffffffffffff16815260200190815260200160002060008373ffffffffffffffffffffffffffffffffffffffff1673ffffffffffffffffffffffffffffffffffffffff16815260200190815260200160002060009054906101000a900460ff16905092915050565b61204a84848484604051602401611fc89493929190613c0e565b6040516020818303038152906040527f8d142cdd000000000000000000000000000000000000000000000000000000007bffffffffffffffffffffffffffffffffffffffffffffffffffffffff19166020820180517bffffffffffffffffffffffffffffffffffffffffffffffffffffffff8381831617835250505050612ba6565b50505050565b6001816000016000828254019250508190555050565b60007f01ffc9a7000000000000000000000000000000000000000000000000000000007bffffffffffffffffffffffffffffffffffffffffffffffffffffffff1916827bffffffffffffffffffffffffffffffffffffffffffffffffffffffff1916149050919050565b60008073ffffffffffffffffffffffffffffffffffffffff166002600084815260200190815260200160002060009054906101000a900473ffffffffffffffffffffffffffffffffffffffff1673ffffffffffffffffffffffffffffffffffffffff1614159050919050565b600033905090565b816004600083815260200190815260200160002060006101000a81548173ffffffffffffffffffffffffffffffffffffffff021916908373ffffffffffffffffffffffffffffffffffffffff160217905550808273ffffffffffffffffffffffffffffffffffffffff166121b783610918565b73ffffffffffffffffffffffffffffffffffffffff167f8c5be1e5ebec7d5bd14f71427d1e84f3dd0314c0f7b2291e5b200ac8c7c3b92560405160405180910390a45050565b6000612208826120d0565b612247576040517f08c379a000000000000000000000000000000000000000000000000000000000815260040161223e90613e99565b60405180910390fd5b600061225283610918565b90508073ffffffffffffffffffffffffffffffffffffffff168473ffffffffffffffffffffffffffffffffffffffff1614806122c157508373ffffffffffffffffffffffffffffffffffffffff166122a9846106fb565b73ffffffffffffffffffffffffffffffffffffffff16145b806122d257506122d18185611f1a565b5b91505092915050565b8273ffffffffffffffffffffffffffffffffffffffff166122fb82610918565b73ffffffffffffffffffffffffffffffffffffffff1614612351576040517f08c379a000000000000000000000000000000000000000000000000000000000815260040161234890613f79565b60405180910390fd5b600073ffffffffffffffffffffffffffffffffffffffff168273ffffffffffffffffffffffffffffffffffffffff1614156123c1576040517f08c379a00000000000000000000000000000000000000000000000000000000081526004016123b890613e59565b60405180910390fd5b6123cc838383612bcf565b6123d7600082612144565b6001600360008573ffffffffffffffffffffffffffffffffffffffff1673ffffffffffffffffffffffffffffffffffffffff16815260200190815260200160002060008282546124279190614225565b925050819055506001600360008473ffffffffffffffffffffffffffffffffffffffff1673ffffffffffffffffffffffffffffffffffffffff168152602001908152602001600020600082825461247e9190614144565b92505081905550816002600083815260200190815260200160002060006101000a81548173ffffffffffffffffffffffffffffffffffffffff021916908373ffffffffffffffffffffffffffffffffffffffff160217905550808273ffffffffffffffffffffffffffffffffffffffff168473ffffffffffffffffffffffffffffffffffffffff167fddf252ad1be2c89b69c2b068fc378daa952ba7f163c4a11628f55a4df523b3ef60405160405180910390a4505050565b600081600001549050919050565b61255f828260405180602001604052806000815250612bd4565b5050565b6125fd83838360405160240161257b93929190613dbb565b6040516020818303038152906040527f969cdd03000000000000000000000000000000000000000000000000000000007bffffffffffffffffffffffffffffffffffffffffffffffffffffffff19166020820180517bffffffffffffffffffffffffffffffffffffffffffffffffffffffff8381831617835250505050612ba6565b505050565b61260d8484846122db565b61261984848484612c2f565b612658576040517f08c379a000000000000000000000000000000000000000000000000000000000815260040161264f90613e19565b60405180910390fd5b50505050565b606060008214156126a6576040518060400160405280600181526020017f30000000000000000000000000000000000000000000000000000000000000008152509050612806565b600082905060005b600082146126d85780806126c190614372565b915050600a826126d1919061419a565b91506126ae565b60008167ffffffffffffffff81111561271a577f4e487b7100000000000000000000000000000000000000000000000000000000600052604160045260246000fd5b6040519080825280601f01601f19166020018201604052801561274c5781602001600182028036833780820191505090505b5090505b600085146127ff576001826127659190614225565b9150600a8561277491906143bb565b60306127809190614144565b60f81b8183815181106127bc577f4e487b7100000000000000000000000000000000000000000000000000000000600052603260045260246000fd5b60200101907effffffffffffffffffffffffffffffffffffffffffffffffffffffffffffff1916908160001a905350600a856127f8919061419a565b9450612750565b8093505050505b919050565b6060600082519050600081141561283457604051806020016040528060008152509150506129c4565b600060036002836128459190614144565b61284f919061419a565b600461285b91906141cb565b9050600060208261286c9190614144565b67ffffffffffffffff8111156128ab577f4e487b7100000000000000000000000000000000000000000000000000000000600052604160045260246000fd5b6040519080825280601f01601f1916602001820160405280156128dd5781602001600182028036833780820191505090505b5090506000604051806060016040528060408152602001614b8b604091399050600181016020830160005b868110156129815760038101905062ffffff818a015116603f8160121c168401518060081b905060ff603f83600c1c1686015116810190508060081b905060ff603f8360061c1686015116810190508060081b905060ff603f831686015116810190508060e01b90508084526004840193505050612908565b50600386066001811461299b57600281146129ab576129b6565b613d3d60f01b60028303526129b6565b603d60f81b60018303525b508484525050819450505050505b919050565b612a65848484846040516024016129e39493929190613c68565b6040516020818303038152906040527fd5cf17d0000000000000000000000000000000000000000000000000000000007bffffffffffffffffffffffffffffffffffffffffffffffffffffffff19166020820180517bffffffffffffffffffffffffffffffffffffffffffffffffffffffff8381831617835250505050612ba6565b50505050565b612b05838383604051602401612a8393929190613bc9565b6040516020818303038152906040527ff362ca59000000000000000000000000000000000000000000000000000000007bffffffffffffffffffffffffffffffffffffffffffffffffffffffff19166020820180517bffffffffffffffffffffffffffffffffffffffffffffffffffffffff8381831617835250505050612ba6565b505050565b612ba28282604051602401612b20929190613d8b565b6040516020818303038152906040527f9710a9d0000000000000000000000000000000000000000000000000000000007bffffffffffffffffffffffffffffffffffffffffffffffffffffffff19166020820180517bffffffffffffffffffffffffffffffffffffffffffffffffffffffff8381831617835250505050612ba6565b5050565b60008151905060006a636f6e736f6c652e6c6f679050602083016000808483855afa5050505050565b505050565b612bde8383612dc6565b612beb6000848484612c2f565b612c2a576040517f08c379a0000000000000000000000000000000000000000000000000000000008152600401612c2190613e19565b60405180910390fd5b505050565b6000612c508473ffffffffffffffffffffffffffffffffffffffff16612f94565b15612db9578373ffffffffffffffffffffffffffffffffffffffff1663150b7a02612c7961213c565b8786866040518563ffffffff1660e01b8152600401612c9b9493929190613ae7565b602060405180830381600087803b158015612cb557600080fd5b505af1925050508015612ce657506040513d601f19601f82011682018060405250810190612ce39190613350565b60015b612d69573d8060008114612d16576040519150601f19603f3d011682016040523d82523d6000602084013e612d1b565b606091505b50600081511415612d61576040517f08c379a0000000000000000000000000000000000000000000000000000000008152600401612d5890613e19565b60405180910390fd5b805181602001fd5b63150b7a0260e01b7bffffffffffffffffffffffffffffffffffffffffffffffffffffffff1916817bffffffffffffffffffffffffffffffffffffffffffffffffffffffff191614915050612dbe565b600190505b949350505050565b600073ffffffffffffffffffffffffffffffffffffffff168273ffffffffffffffffffffffffffffffffffffffff161415612e36576040517f08c379a0000000000000000000000000000000000000000000000000000000008152600401612e2d90613f19565b60405180910390fd5b612e3f816120d0565b15612e7f576040517f08c379a0000000000000000000000000000000000000000000000000000000008152600401612e7690613e39565b60405180910390fd5b612e8b60008383612bcf565b6001600360008473ffffffffffffffffffffffffffffffffffffffff1673ffffffffffffffffffffffffffffffffffffffff1681526020019081526020016000206000828254612edb9190614144565b92505081905550816002600083815260200190815260200160002060006101000a81548173ffffffffffffffffffffffffffffffffffffffff021916908373ffffffffffffffffffffffffffffffffffffffff160217905550808273ffffffffffffffffffffffffffffffffffffffff16600073ffffffffffffffffffffffffffffffffffffffff167fddf252ad1be2c89b69c2b068fc378daa952ba7f163c4a11628f55a4df523b3ef60405160405180910390a45050565b600080823b905060008111915050919050565b6040518060a0016040528060608152602001606081526020016000815260200160008152602001600081525090565b6040518060c001604052806060815260200160608152602001600081526020016000815260200160008152602001600081525090565b8280546130189061430f565b90600052602060002090601f01602090048101928261303a5760008555613081565b82601f1061305357805160ff1916838001178555613081565b82800160010185558215613081579182015b82811115613080578251825591602001919060010190613065565b5b50905061308e9190613092565b5090565b5b808211156130ab576000816000905550600101613093565b5090565b60006130c26130bd84614086565b614061565b9050828152602081018484840111156130da57600080fd5b6130e58482856142cd565b509392505050565b6000813590506130fc81614aa2565b92915050565b60008135905061311181614ab9565b92915050565b60008135905061312681614ad0565b92915050565b60008151905061313b81614ad0565b92915050565b600082601f83011261315257600080fd5b81356131628482602086016130af565b91505092915050565b60008135905061317a81614ae7565b92915050565b60006020828403121561319257600080fd5b60006131a0848285016130ed565b91505092915050565b600080604083850312156131bc57600080fd5b60006131ca858286016130ed565b92505060206131db858286016130ed565b9150509250929050565b6000806000606084860312156131fa57600080fd5b6000613208868287016130ed565b9350506020613219868287016130ed565b925050604061322a8682870161316b565b9150509250925092565b6000806000806080858703121561324a57600080fd5b6000613258878288016130ed565b9450506020613269878288016130ed565b935050604061327a8782880161316b565b925050606085013567ffffffffffffffff81111561329757600080fd5b6132a387828801613141565b91505092959194509250565b600080604083850312156132c257600080fd5b60006132d0858286016130ed565b92505060206132e185828601613102565b9150509250929050565b600080604083850312156132fe57600080fd5b600061330c858286016130ed565b925050602061331d8582860161316b565b9150509250929050565b60006020828403121561333957600080fd5b600061334784828501613117565b91505092915050565b60006020828403121561336257600080fd5b60006133708482850161312c565b91505092915050565b60006020828403121561338b57600080fd5b60006133998482850161316b565b91505092915050565b60006133ae83836138c7565b905092915050565b6133bf81614259565b82525050565b60006133d0826140c7565b6133da81856140f5565b9350836020820285016133ec856140b7565b8060005b85811015613428578484038952815161340985826133a2565b9450613414836140e8565b925060208a019950506001810190506133f0565b50829750879550505050505092915050565b6134438161426b565b82525050565b6000613454826140d2565b61345e8185614106565b935061346e8185602086016142dc565b613477816144a8565b840191505092915050565b600061348d826140dd565b6134978185614117565b93506134a78185602086016142dc565b6134b0816144a8565b840191505092915050565b60006134c6826140dd565b6134d08185614128565b93506134e08185602086016142dc565b6134e9816144a8565b840191505092915050565b60006134ff826140dd565b6135098185614139565b93506135198185602086016142dc565b80840191505092915050565b6000613532600b83614139565b915061353d826144b9565b600b82019050919050565b6000613555601a83614128565b9150613560826144e2565b602082019050919050565b6000613578603283614128565b91506135838261450b565b604082019050919050565b600061359b601c83614128565b91506135a68261455a565b602082019050919050565b60006135be600e83614139565b91506135c982614583565b600e82019050919050565b60006135e1602483614128565b91506135ec826145ac565b604082019050919050565b6000613604601983614128565b915061360f826145fb565b602082019050919050565b6000613627606b83614139565b915061363282614624565b606b82019050919050565b600061364a602c83614128565b9150613655826146bf565b604082019050919050565b600061366d603883614128565b91506136788261470e565b604082019050919050565b6000613690602a83614128565b915061369b8261475d565b604082019050919050565b60006136b3602983614128565b91506136be826147ac565b604082019050919050565b60006136d6600483614139565b91506136e1826147fb565b600482019050919050565b60006136f9602083614128565b915061370482614824565b602082019050919050565b600061371c601e83614128565b91506137278261484d565b602082019050919050565b600061373f602c83614128565b915061374a82614876565b604082019050919050565b6000613762602983614128565b915061376d826148c5565b604082019050919050565b6000613785600a83614139565b915061379082614914565b600a82019050919050565b60006137a8602183614128565b91506137b38261493d565b604082019050919050565b60006137cb601d83614139565b91506137d68261498c565b601d82019050919050565b60006137ee603183614128565b91506137f9826149b5565b604082019050919050565b6000613811603d83614139565b915061381c82614a04565b603d82019050919050565b6000613834602d83614139565b915061383f82614a53565b602d82019050919050565b600060a08301600083015184820360008601526138678282613482565b915050602083015184820360208601526138818282613482565b915050604083015161389660408601826139e7565b5060608301516138a960608601826139e7565b5060808301516138bc60808601826139e7565b508091505092915050565b600060c08301600083015184820360008601526138e48282613482565b915050602083015184820360208601526138fe8282613482565b915050604083015161391360408601826139e7565b50606083015161392660608601826139e7565b50608083015161393960808601826139e7565b5060a083015161394c60a08601826139e7565b508091505092915050565b600060c08301600083015184820360008601526139748282613482565b9150506020830151848203602086015261398e8282613482565b91505060408301516139a360408601826139e7565b5060608301516139b660608601826139e7565b5060808301516139c960808601826139e7565b5060a08301516139dc60a08601826139e7565b508091505092915050565b6139f0816142c3565b82525050565b6139ff816142c3565b82525050565b6000613a1082613778565b9150613a1c82896134f4565b9150613a2782613525565b9150613a3382886134f4565b9150613a3e8261361a565b9150613a4a82876134f4565b9150613a5582613804565b9150613a6182866134f4565b9150613a6c826135b1565b9150613a7882856134f4565b9150613a8382613827565b9150613a8f82846134f4565b9150613a9a826136c9565b9150819050979650505050505050565b6000613ab5826137be565b9150613ac182846134f4565b915081905092915050565b6000602082019050613ae160008301846133b6565b92915050565b6000608082019050613afc60008301876133b6565b613b0960208301866133b6565b613b1660408301856139f6565b8181036060830152613b288184613449565b905095945050505050565b6000606082019050613b4860008301866133b6565b613b5560208301856139f6565b613b6260408301846139f6565b949350505050565b60006020820190508181036000830152613b8481846133c5565b905092915050565b6000602082019050613ba1600083018461343a565b92915050565b60006020820190508181036000830152613bc181846134bb565b905092915050565b60006060820190508181036000830152613be381866134bb565b90508181036020830152613bf781856134bb565b9050613c0660408301846139f6565b949350505050565b60006080820190508181036000830152613c2881876134bb565b90508181036020830152613c3c81866134bb565b9050613c4b60408301856139f6565b8181036060830152613c5d81846134bb565b905095945050505050565b60006080820190508181036000830152613c8281876134bb565b90508181036020830152613c9681866134bb565b9050613ca560408301856139f6565b613cb260608301846139f6565b95945050505050565b600060a0820190508181036000830152613cd581886134bb565b90508181036020830152613ce981876134bb565b9050613cf860408301866139f6565b613d0560608301856139f6565b613d1260808301846139f6565b9695505050505050565b600060c0820190508181036000830152613d3681896134bb565b90508181036020830152613d4a81886134bb565b9050613d5960408301876139f6565b613d6660608301866139f6565b613d7360808301856139f6565b613d8060a08301846139f6565b979650505050505050565b60006040820190508181036000830152613da581856134bb565b9050613db460208301846139f6565b9392505050565b60006060820190508181036000830152613dd581866134bb565b9050613de460208301856139f6565b613df160408301846139f6565b949350505050565b60006020820190508181036000830152613e1281613548565b9050919050565b60006020820190508181036000830152613e328161356b565b9050919050565b60006020820190508181036000830152613e528161358e565b9050919050565b60006020820190508181036000830152613e72816135d4565b9050919050565b60006020820190508181036000830152613e92816135f7565b9050919050565b60006020820190508181036000830152613eb28161363d565b9050919050565b60006020820190508181036000830152613ed281613660565b9050919050565b60006020820190508181036000830152613ef281613683565b9050919050565b60006020820190508181036000830152613f12816136a6565b9050919050565b60006020820190508181036000830152613f32816136ec565b9050919050565b60006020820190508181036000830152613f528161370f565b9050919050565b60006020820190508181036000830152613f7281613732565b9050919050565b60006020820190508181036000830152613f9281613755565b9050919050565b60006020820190508181036000830152613fb28161379b565b9050919050565b60006020820190508181036000830152613fd2816137e1565b9050919050565b60006020820190508181036000830152613ff3818461384a565b905092915050565b600060208201905081810360008301526140158184613957565b905092915050565b600060208201905061403260008301846139f6565b92915050565b600060408201905061404d60008301856139f6565b61405a60208301846139f6565b9392505050565b600061406b61407c565b90506140778282614341565b919050565b6000604051905090565b600067ffffffffffffffff8211156140a1576140a0614479565b5b6140aa826144a8565b9050602081019050919050565b6000819050602082019050919050565b600081519050919050565b600081519050919050565b600081519050919050565b6000602082019050919050565b600082825260208201905092915050565b600082825260208201905092915050565b600082825260208201905092915050565b600082825260208201905092915050565b600081905092915050565b600061414f826142c3565b915061415a836142c3565b9250827fffffffffffffffffffffffffffffffffffffffffffffffffffffffffffffffff0382111561418f5761418e6143ec565b5b828201905092915050565b60006141a5826142c3565b91506141b0836142c3565b9250826141c0576141bf61441b565b5b828204905092915050565b60006141d6826142c3565b91506141e1836142c3565b9250817fffffffffffffffffffffffffffffffffffffffffffffffffffffffffffffffff048311821515161561421a576142196143ec565b5b828202905092915050565b6000614230826142c3565b915061423b836142c3565b92508282101561424e5761424d6143ec565b5b828203905092915050565b6000614264826142a3565b9050919050565b60008115159050919050565b60007fffffffff0000000000000000000000000000000000000000000000000000000082169050919050565b600073ffffffffffffffffffffffffffffffffffffffff82169050919050565b6000819050919050565b82818337600083830152505050565b60005b838110156142fa5780820151818401526020810190506142df565b83811115614309576000848401525b50505050565b6000600282049050600182168061432757607f821691505b6020821081141561433b5761433a61444a565b5b50919050565b61434a826144a8565b810181811067ffffffffffffffff8211171561436957614368614479565b5b80604052505050565b600061437d826142c3565b91507fffffffffffffffffffffffffffffffffffffffffffffffffffffffffffffffff8214156143b0576143af6143ec565b5b600182019050919050565b60006143c6826142c3565b91506143d1836142c3565b9250826143e1576143e061441b565b5b828206905092915050565b7f4e487b7100000000000000000000000000000000000000000000000000000000600052601160045260246000fd5b7f4e487b7100000000000000000000000000000000000000000000000000000000600052601260045260246000fd5b7f4e487b7100000000000000000000000000000000000000000000000000000000600052602260045260246000fd5b7f4e487b7100000000000000000000000000000000000000000000000000000000600052604160045260246000fd5b6000601f19601f8301169050919050565b7f202d2d204e465420233a20000000000000000000000000000000000000000000600082015250565b7f54686973206368617261637465722069732064656164203a2d28000000000000600082015250565b7f4552433732313a207472616e7366657220746f206e6f6e20455243373231526560008201527f63656976657220696d706c656d656e7465720000000000000000000000000000602082015250565b7f4552433732313a20746f6b656e20616c7265616479206d696e74656400000000600082015250565b7f2c20226d61785f76616c7565223a000000000000000000000000000000000000600082015250565b7f4552433732313a207472616e7366657220746f20746865207a65726f2061646460008201527f7265737300000000000000000000000000000000000000000000000000000000602082015250565b7f4552433732313a20617070726f766520746f2063616c6c657200000000000000600082015250565b7f222c20226465736372697074696f6e223a20225468697320697320616e204e4660008201527f542074686174206c6574732070656f706c6520706c617920696e20746865206760208201527f616d65204d657461766572736520466c75666679206d6f6e737465727321222c60408201527f2022696d616765223a2022000000000000000000000000000000000000000000606082015250565b7f4552433732313a206f70657261746f7220717565727920666f72206e6f6e657860008201527f697374656e7420746f6b656e0000000000000000000000000000000000000000602082015250565b7f4552433732313a20617070726f76652063616c6c6572206973206e6f74206f7760008201527f6e6572206e6f7220617070726f76656420666f7220616c6c0000000000000000602082015250565b7f4552433732313a2062616c616e636520717565727920666f7220746865207a6560008201527f726f206164647265737300000000000000000000000000000000000000000000602082015250565b7f4552433732313a206f776e657220717565727920666f72206e6f6e657869737460008201527f656e7420746f6b656e0000000000000000000000000000000000000000000000602082015250565b7f7d205d7d00000000000000000000000000000000000000000000000000000000600082015250565b7f4552433732313a206d696e7420746f20746865207a65726f2061646472657373600082015250565b7f54686520626f73732077617320646566656174656420616c7265616479210000600082015250565b7f4552433732313a20617070726f76656420717565727920666f72206e6f6e657860008201527f697374656e7420746f6b656e0000000000000000000000000000000000000000602082015250565b7f4552433732313a207472616e73666572206f6620746f6b656e2074686174206960008201527f73206e6f74206f776e0000000000000000000000000000000000000000000000602082015250565b7f7b226e616d65223a202200000000000000000000000000000000000000000000600082015250565b7f4552433732313a20617070726f76616c20746f2063757272656e74206f776e6560008201527f7200000000000000000000000000000000000000000000000000000000000000602082015250565b7f646174613a6170706c69636174696f6e2f6a736f6e3b6261736536342c000000600082015250565b7f4552433732313a207472616e736665722063616c6c6572206973206e6f74206f60008201527f776e6572206e6f7220617070726f766564000000000000000000000000000000602082015250565b7f222c202261747472696275746573223a205b207b202274726169745f7479706560008201527f223a20224865616c746820506f696e7473222c202276616c7565223a20000000602082015250565b7f7d2c207b202274726169745f74797065223a202241747461636b2044616d616760008201527f65222c202276616c7565223a2000000000000000000000000000000000000000602082015250565b614aab81614259565b8114614ab657600080fd5b50565b614ac28161426b565b8114614acd57600080fd5b50565b614ad981614277565b8114614ae457600080fd5b50565b614af0816142c3565b8114614afb57600080fd5b5056fe25732061747461636b656420426f73732e204e657720626f73732068703a2025730a506c617965722077697468206368617261637465722025732061626f757420746f2061747461636b2e2048617320257320485020616e642025732041444d696e746564204e4654207769746820746f6b656e494420257320616e6420636861726163746572496e6465784142434445464748494a4b4c4d4e4f505152535455565758595a6162636465666768696a6b6c6d6e6f707172737475767778797a303132333435363738392b2f426f73732061747461636b656420706c617965722e204e657720706c617965722068703a2025730aa26469706673582212203503ba12e435af271239d3e1e4bd250caed958e0d7744fc240b5fe9f0fcae09f64736f6c63430008040033496e697469616c697a6174696f6e20666f7220257320776974682048502025732c20696d67202573446f6e6520696e697469616c697a696e6720626f737320257320772f2048502025732c20696d67202573",
  "linkReferences": {},
  "deployedLinkReferences": {}
}